:1000000012C02CC02BC02AC029C028C027C026C0BF
:1000100025C024C023C061C021C020C01FC01EC095
:100020001DC01CC01BC011241FBECFE5D4E0DEBF25
:10003000CDBF12E0A0E6B0E0E2EBF7E002C0059031
:100040000D92A433B107D9F713E0A4E3B2E001C0E5
:100050001D92AD36B107E1F706D2A9C3D1CF82E038
:100060008BB988E98AB986E880BD10BC8CE089B973
:1000700008955D9BFECF8CB90895FC0104C05D9B83
:10008000FECF8CB9319680818823C9F7089582E02C
:1000900081BB9CEF92BB83E084BB95BB17BA8FEF0B
:1000A00088BB089580936A03089580936B03089535
:1000B000A99A80E197E22CE231E0F9013197F1F75A
:1000C0000197D9F7A99880E197E22CE231E0F90194
:1000D0003197F1F70197D9F708951F920F920FB654
:1000E0000F9211242F933F934F935F936F937F93BE
:1000F0008F939F93AF93BF93EF93FF938BB12CB1EB
:100100008C71D1F58091350290913602FC01E25C50
:10011000FD4F208331E08C32930729F41092360290
:100120001092350205C001969093360280933502F5
:100130002D3011F58EE392E060E670E0F7D2009783
:10014000D9F010926B038EE392E065E670E0EED298
:10015000009721F081E080936B03A89A8EE392E0F0
:1001600069E670E0E3D2009721F081E080936B03B1
:10017000A89881E080936A03FF91EF91BF91AF91BE
:100180009F918F917F916F915F914F913F912F91AF
:100190000F900FBE0F901F901895CF92DF92EF92A5
:1001A000FF920F931F93DF93CF9300D000D00F9255
:1001B000CDB7DEB77C018CE0C82ED12C03C00894EB
:1001C000C11CD11CF701EC0DFD1D80818D3029F083
:1001D0008CE2C81681E0D80691F7B701645F7F4FC3
:1001E000A6014C505040CE01019691D2C601029614
:1001F000D7010D900020E9F78D01015010400E1934
:100200001F09081B190B9701280F391FC701B901D6
:10021000A8014FD2065010400E0D1F1DC8016EE6FA
:1002200070E046E050E065D2009741F49601285F07
:100230003F4FC80160E070E0A90144D20F900F90D9
:100240000F900F900F90CF91DF911F910F91FF9022
:10025000EF90DF90CF9008958CE291E0EEE3F2E032
:10026000DF019C011D9221503040E1F710923602CF
:100270001092350208958F929F92AF92BF92CF92C3
:10028000DF92EF92FF920F931F93CF93DF93CC24D3
:10029000DD242EE3822E22E0922E98EBA92E9BE005
:1002A000B92E8091370290913802805E914BC8162A
:1002B000D90640F0109234021092380210923702A0
:1002C00082E048C080916C03843041F4109239027E
:1002D00010923B0210923A0210926C03F4010190CA
:1002E0000020E9F78F01015010400E53124009F42D
:1002F00049C0C5010197F1F780913402E82EFF242F
:1003000082E090E0E80EF91EC0E0D0E033C08091BA
:100310003B0280933A02FE01E25CFD4F80818093B4
:100320003B028AE392E065E770E042E050E0E1D111
:100330000097F9F4809139028F5F8093390290E041
:100340008E159F05B1F4109234021092380210926B
:10035000370281E080936C03DF91CF911F910F9161
:10036000FF90EF90DF90CF90BF90AF909F908F90D5
:1003700008952196C017D10750F20894C11CD11CD2
:1003800010923902C5010197F1F70894C11CD11CE4
:1003900088CF84E080936C036EDF80916C038823A8
:1003A000D9F308951F93CF93DF93EC01162F54DFF9
:1003B00080ED97E02CE231E0F9013197F1F70197F8
:1003C000D9F7E7DF112379F080916C03823059F07F
:1003D000688179818EE392E0A9D19C0180E0232B92
:1003E00019F081E001C080E0DF91CF911F91089565
:1003F000CF93DF93EC0130DF80ED97E02CE231E02A
:10040000F9013197F1F70197D9F7C3DF80916C03B8
:10041000823011F480E009C08EE392E0BE0186D103
:100420009C0180E0232B09F081E0DF91CF910895BA
:100430000F931F938B0121DE85E790E01EDEC8013C
:10044000D7DF1F910F91089588E790E06DE770E086
:10045000EFDF882311F081E0089580E890E06DE7F8
:1004600070E0E6DF0895CF93DF9310926B03109254
:100470006A03F8940CDE82E08BB988E98AB986E8D1
:1004800080BD10BC8CE089B980E197E22CE231E0BC
:10049000F9013197F1F70197D9F77894D5DF8823DF
:1004A000E9F383E890E06AE870E0C2DF80E990E079
:1004B0006DE770E0BDDF8DE990E06DE770E0B8DFDB
:1004C00089EA90E06DE770E0B3DF8BEB90E06DE7D9
:1004D00070E0AEDFA99AC8EBDBE080916A03882365
:1004E00021F4CE010197F1F7F8CF80916B038823B7
:1004F00081F487EC90E06AED70E09ADF882349F0A0
:100500008CED90E0BADD8EEE90E0B7DD89E191E010
:10051000B4DDA2DE10926A03E0CF8F929F92AF9279
:10052000BF92CF92DF92EF92FF920F931F93CF93E0
:10053000DF935B01EA01490169E272E0B6D00097FE
:1005400059F1B501C6D000E010E0009711F401E0C8
:1005500010E07801EC1AFD0ACC24DD2415C0CE0190
:10056000B501B7D0009709F46801CE01B401B1D04C
:10057000009729F4CE14DF0411F481E00EC00F5F60
:100580001F4F0894E11CF11C80E090E069E272E0EA
:100590008CD0EC01009719F780E0DF91CF911F918B
:1005A0000F91FF90EF90DF90CF90BF90AF909F9012
:1005B0008F9008958F929F92AF92BF92CF92DF92C9
:1005C000EF92FF920F931F93CF93DF935B01EA01AA
:1005D00049016EE272E069D0009759F1B50179D016
:1005E00000E010E0009711F401E010E07801EC1A4F
:1005F000FD0ACC24DD2415C0CE01B5016AD00097D8
:1006000009F46801C7010196CE14DF0439F4F4013E
:100610001082C401BE0166D081E00CC00F5F1F4F85
:100620007C0180E090E06EE272E03FD0EC01009748
:1006300019F780E0DF91CF911F910F91FF90EF901C
:10064000DF90CF90BF90AF909F908F900895EF92E2
:10065000FF920F931F93CF93DF937B018A016EE28A
:1006600072E023D0BC010097C1F0E114F10431F035
:10067000C1E0D0E00AC0EC16FD0631F4F8011082AA
:10068000C80130D081E00AC0219680E090E06EE29F
:1006900072E00BD0BC01009771F780E0DF91CF9141
:1006A0001F910F91FF90EF9008954CE352E058D0C6
:1006B0000895FB01DC0102C001900D9241505040B1
:1006C000D8F70895DC0101C06D9341505040E0F728
:1006D0000895FB01DC018D91019080190110D9F37F
:1006E000990B0895FB01DC0101900D920020E1F7C8
:1006F0000895FB01DC014150504030F08D91019094
:10070000801919F40020B9F7881B990B0895FB0193
:10071000DC014150504048F001900D920020C9F793
:1007200001C01D9241505040E0F70895FB015191E6
:100730005523A9F0BF01DC014D9145174111E1F7A7
:1007400059F4CD010190002049F04D91401541111F
:10075000C9F3FB014111EFCF81E090E001970895CB
:10076000FA01A191B081009719F41097E1F0CD0141
:10077000DC01CD010D90002011F4C00113C0FB017C
:100780002191222319F02015D9F7F3CFFB012191F4
:10079000201519F41E92119606C02223C1F70D9060
:1007A0000020A1F7D001FA01A193B0830895F89435
:0207B000FFCF79
:1007B2002B495044002F6F6E002F6F6666000D0AA2
:1007C2004F4B0D0A000D0A0041544530004F4B00BB
:1007D20041540041542B52535400526561647900D4
:1007E20041542B4349504D4F44453D300041542B19
:1007F2004349504D55583D310041542B43495053C4
:1008020045525645523D312C38380041542B43490C
:100812005053544F3D350041542B43495053454E9C
:10082200443D302C3333300D0A003E0048545450BE
:100832002F312E3120323030204F4B0D0A00436FC2
:100842006E74656E742D547970653A20746578748F
:100852002F68746D6C3B20636861727365743D55DB
:1008620054462D380D0A0D0A003C68746D6C3E3CEE
:10087200686561643E3C7469746C653E45535038EA
:100882003236363C2F7469746C653E3C2F68656164
:10089200643E3C626F64793E3C627574746F6E2094
:1008A2006F6E636C69636B3D22436865636B2831CD
:1008B20029223E6F6E3C2F627574746F6E3E203C2F
:1008C200627574746F6E206F6E636C69636B3D2228
:1008D200436865636B283029223E6F66663C2F624F
:1008E2007574746F6E3E3C7363726970743E2066F9
:1008F200756E6374696F6E20436865636B287374E9
:10090200617465297B207661722078687474703D09
:100912006E657720584D4C487474705265717565D8
:10092200737428293B78687474702E6F70656E2812
:1009320022474554222C287374617465293F222F63
:100942006F6E223A222F6F6666222C7472756529A9
:100952003B78687474702E73656E6428293B7D3C05
:100962002F7363726970743E3C2F626F64793E3CF0
:100972002F68746D6C3E0D0A002C200D0A002C208D
:04098200220D0A0038
:00000001FF
